:020000040800F2
:1000000028040020010100080D0B0008050B000862
:10001000090B0008B9030008350C000800000000B7
:10002000000000000000000000000000150B0008A8
:10003000BD03000800000000110B0008190B0008A8
:100040001B0100081B0100081B0100081B01000820
:100050001B0100081B0100081B0100081B01000810
:100060001B0100081B0100081B0100081B01000800
:100070001B0100081B0100081B0100081B010008F0
:100080001B0100081B0100081B0100081B010008E0
:100090001B0100081B0100081B0100081B010008D0
:1000A0001B0100081B0100081B0100086D0B000864
:1000B0001B0100081B0100081B0100081B010008B0
:1000C0001B0100081B0100081B0100081B010008A0
:1000D0001B0100081B0100081B0100081B01000890
:1000E0001B0100081B0100081B010008DFF80CD0F1
:1000F00000F03AF900480047B90C00082804002035
:100100000648804706480047FEE7FEE7FEE7FEE7B1
:10011000FEE7FEE7FEE7FEE7FEE7FEE7690B000805
:10012000ED0000082DE9FE4F81EA030404F00044CD
:1001300021F0004100944FF0000B23F0004350EAFF
:1001400001045ED052EA03045BD0C3F30A54C1F346
:100150000A552C44A4F2F3340194A0FB0254C1F3D9
:10016000130141F48011C3F3130343F4801301FB23
:10017000024400FB034E840A970A44EA815447EA8A
:100180008357A4FB076802958D0A05FB07854FEA94
:10019000932C04FB0C542705029D4FEA065847EAAE
:1001A0001637B5EB08056EEB070C870E920E47EA83
:1001B000811742EA8312A7FB0201B6EB0B0164EB45
:1001C00000042B0D43EA0C335E1844EB1C50DA4656
:1001D0005146E7FB0201C5F313044FEA0B3343EA30
:1001E00014534FEA0432019C43EA0603A4F10C04C1
:1001F0000294009CCDE900B400F067F803B0BDE8BC
:10020000F08F00200146F9E70EB540F2334102912C
:100210000021CDE900110A460B4600F056F803B064
:1002200000BD70B5C1F30A5201F000450024C1F3CE
:10023000130140F2FF3341F480119A4201DA0020A9
:1002400070BD40F233439A42A2F2334203DC524281
:1002500000F01CF800E090402C43F1D0404270BD0B
:1002600030B50B46014600202022012409E021FA86
:1002700002F59D4205D303FA02F5491B04FA02F583
:100280002844151EA2F10102F1DC30BD202A04DB56
:10029000203A21FA02F00021704721FA02F3D040FF
:1002A000C2F12002914008431946704710B5141E50
:1002B00073F1000408DA401C41F1000192185B411F
:1002C0001A4301D120F0010010BD2DE9F04D9246F6
:1002D0009B4611B1B1FA81F202E0B0FA80F220320D
:1002E000904600F059F804460F4640EA0A0041EAF9
:1002F0000B0153465A46084313D0114653EA0100F6
:1003000019D0C8F140025046FFF7C0FF05460E461F
:1003100050465946424600F03FF8084305D00120B8
:1003200004E020463946BDE8F08D0020054346EA4A
:10033000E0762C4337430A986305E40AA0EB0800F3
:100340000022FD0A44EA47540A3002D50020014643
:10035000E9E7010510196941DDE90845001969411E
:10036000BDE8F04DA2E700001CB50948009009481F
:1003700001900546009C06E0E06840F0010394E827
:10038000070098471034AC42F6D3FFF7B3FE0000E5
:10039000B0100008D0100008202A04DB203A00FA30
:1003A00002F1002070479140C2F1200320FA03F3CC
:1003B0001943904070470000FEE7000070470000BE
:1003C00040F22000C2F200000068704740F20000D6
:1003D00040F22001C2F20000C2F2000100780A6877
:1003E000104408607047000080B542F20000C4F27B
:1003F0000200016841F010010160032000F07AF86A
:100400000F2000F005F800F027F8002080BD000064
:1004100070B540F20006C2F2000640F208013278E0
:10042000C2F200014FF47A730968B3FBF2F204469A
:10043000B1FBF2F1084600F04FFB0F2C4FF0010525
:1004400008D838B94FF0FF3021460022002500F0CF
:1004500025F87460284670BD82B041F21800C4F2DD
:1004600002000168022241F001010160016801F00F
:10047000010101910199416841F08051416040685A
:1004800000F08050009000980420C4F20100016840
:1004900062F31A61016002B07047000010B54EF6B9
:1004A0000C5CCEF2000CDCF80030C3F3022E8EF0B0
:1004B0000704042C28BF0424BEF103034FF0FF3EC1
:1004C0000EFA04F438BF0023A14399400EFA03F357
:1004D0009A43114300F00F0200F160430901043A0E
:1004E00003F564436244002848BF02F10C0319700D
:1004F00010BD00004EF60C51CEF200010A684FF616
:10050000FF031A4060F30A2242F0806040F0FD7061
:1005100008607047002804BF012070472DE9F043B0
:1005200081B042F20008C4F202080446D8F8000084
:100530000D4600F0070088420CD2D8F8000020F0E9
:1005400007002843C8F80000D8F8000000F00700B2
:10055000A8426CD1206841F204098107C4F2020963
:1005600017D5410705D5D9F8001041F4E061C9F865
:100570000010010705D5D9F8001041F46051C9F801
:100580000010D9F80010A26821F0F0011143C9F859
:100590000010C00742D1D8F8000000F00700A842C0
:1005A0000CD9D8F8000020F007002843C8F8000054
:1005B000D8F8000000F00700A84238D120684107B1
:1005C00007D5D9F80010E26821F4E0611143C9F8B9
:1005D0000010000708D5D9F80000216920F4605008
:1005E00040EAC100C9F80000D9F8002002F00C0070
:1005F000082841F20020C0F27A0051D141F2A00354
:10060000C2F38341C0F60003595CD2033CD440F6E8
:100610000010C0F23D00484342E000BF606802287D
:100620000AD001282AD159F8041C890308D40120D2
:1006300001B0BDE8F08300BF59F8041C8901F6D56C
:10064000D9F8001021F003010843C9F80000FFF7B2
:10065000B7FE064641F28837D9F80000616800F01D
:100660000C00B0EB810F96D0FFF7AAFE801BB842BA
:10067000F2D9032001B0BDE8F08300BF59F8041C93
:100680008907D4D5DCE700BFD9F8002041F29E03EA
:10069000C2F34042C0F600039A5C4843B0FBF2F05C
:1006A000D9F8001041F28E02C1F30311C0F6000226
:1006B000515C40F2080220FA01F140F20400C2F25B
:1006C00000000068C2F200021160FFF7A1FE0020E6
:1006D00001B0BDE8F0830000002804BF012070478E
:1006E0002DE9F04182B00446007841F20006C007CF
:1006F000C4F202060CD0706800F00C00042840F030
:1007000081803068800303D56068002800F04E8146
:10071000207880071BD5706810F00C0F09D0706826
:1007200000F00C00082840F08B807068C00300F1D6
:1007300087803068800703D52069012840F0368122
:100740003068616920F0F80040EAC100306020782C
:10075000000713D4207840072CD4E569002D00F061
:100760002081706800F00C00082840F0AF80012D57
:1007700040F00C81012002B0BDE8F081A0690028A2
:1007800000F08C800020C4F242200121C0F88014C7
:10079000FFF716FE054600BF706A800700F1BA80B9
:1007A000FFF70EFE401B0228F6D9032002B0BDE879
:1007B000F08100BFF0695FEAC00808D4F06940F03A
:1007C0008050F061F06900F080500090009847F28E
:1007D0000007C4F200073868C0054DD4386840F4FB
:1007E00080703860FFF7ECFD054600BF3868C00533
:1007F00042D4FFF7E5FD401B6428F7D9032002B07F
:10080000BDE8F081706800F00C00082803D1706822
:10081000C0033FF576AF6068002800F00981B0F5AD
:10082000A02F00F01D81B0F5803F00F01D813068E1
:1008300020F480303060306820F4802017E100BF61
:100840002069002840F20000C4F2422000F08C80B1
:1008500001210160FFF7B4FD054600BF3068800745
:100860003FF56EAFFFF7ACFD401B0228F6D9032021
:1008700002B0BDE8F08100BFE068002800F09A8077
:10088000052800F0B180012800F0B280306A20F025
:1008900001003062306A20F00400ACE00020C4F2B5
:1008A00042200021C0F88014FFF78AFD054600BFF2
:1008B000706A80077FF54EAFFFF782FD401B02286C
:1008C000F6D9032002B0BDE8F08100BF0027C4F2D2
:1008D000422700203866FFF773FD022D05460DD133
:1008E0003068800140F1D680FFF76AFD401B022886
:1008F0004FF00300F4D902B0BDE8F0813068800108
:100900004FD5FFF75DFD401B02284FF00300F5D9DE
:10091000F1E700BF40F20800C2F20000006844F6B0
:10092000D351C1F26201A0FB0101480A019000BF4E
:1009300000BF0198411E002801913FF40BAF00BF9A
:100940000198411E002801913FF404AF00BF0198B7
:10095000411E002801913FF4FDAE00BF0198411EE9
:1009600000280191E4D1F5E600210160FFF728FDA0
:10097000054600BF306880077FF5E9AEFFF720FD30
:10098000401B02284FF00300F4D9B4E77068216AD5
:1009900000F480328A4209D1616A00F47010884202
:1009A00004D1002002B0BDE8F08100BF012002B0F8
:1009B000BDE8F081306A20F001003062306A20F03A
:1009C00004003062FFF7FCFC054641F2883700BFA7
:1009D000306A800722D5FFF7F3FC401BB8424FF086
:1009E0000300F5D987E700BF306A40F004003062A9
:1009F000306A40F001003062FFF7E2FC054641F248
:100A0000883700BF306A800708D4FFF7D9FC401B45
:100A1000B842F7D9032002B0BDE8F081B8F1000F69
:100A20003FF59BAEF06920F08050F06195E600BF85
:100A3000306820F480303060306820F480203060EE
:100A4000FFF7BEFC054600BF306880037FF560AE4F
:100A5000FFF7B6FC401B64284FF00300F4D94AE7C7
:100A6000306840F480203060306840F4803030607E
:100A7000FFF7A6FC054600BF306880033FF548AE8F
:100A8000FFF79EFC401B6428F6D9032002B0BDE8A6
:100A9000F08100BF206AB0F5803F05D17168A2687F
:100AA00021F40031114371607168626A21F474119C
:100AB00011430843706001203866FFF781FC04464B
:100AC000306880013FF56DAFFFF77AFC001B02280C
:100AD0004FF00300F4D90EE7411E0020B0EB116F78
:100AE0001CBF012070474EF21002CEF2000251608E
:100AF0004EF62351CEF20001F0230B7007219060D7
:100B000011607047FEE70000FEE70000FEE700000E
:100B10007047000070470000FFF758BCB0B590B0B8
:100B200000240120CDE90B44CDE9094406900A9048
:100B30004FF4E0104FF4803102250F9006A8CDE964
:100B40000714CDE90D51FFF7C7FD0F20CDE90105D1
:100B50004FF48060CDE9040401A802210394FFF75B
:100B6000D9FC10B0B0BD00007047000070B542F66F
:100B70002044C4F201046FF0020040F2100544F872
:100B8000100CC2F20005287801280FD0002818BFE9
:100B900070BD6069686001202870206820F00A003C
:100BA0002060206840F00200206070BD6069A8608D
:100BB00000206060D5E90110884201D9401A04E0A4
:100BC00006D2401A4FF6FF710844E86001E000BF0A
:100BD000E868FFF719FB4CF29C4246F67203CBF231
:100BE0002002C3F6A173FFF79DFA0023C3F6E0735A
:100BF00000220026FFF796FAFFF713FB68702E70AD
:100C0000206820F00A0020602068206054F8140C4E
:100C100020F0020044F8140C206820F0010020604D
:100C20002068206054F8200C20F0010044F8200CCB
:100C300070BD0000FEE700004EF6FC50CEF2000052
:100C40000168C90148BF7047016841F080710160C7
:100C500041F20000CEF2000000214160016841F045
:100C6000010101607047000041F2040140F20803F5
:100C7000CEF20001C2F200030A68D3F800C04DF6BC
:100C80008363C4F21B33ACFB033C4FEA9C435843E1
:100C900009E000BF0B689B1A834228BF70470B68AE
:100CA0009B1A834207D20B689B1A834203D20B68BC
:100CB0009B1A8342EED3704786B042F6184741F242
:100CC000040A40F6000544F20044C4F20107C4F2ED
:100CD000010AC4F20105C4F20004FFF785FBFFF727
:100CE0001DFF41F21800C4F20200016842F20C023A
:100CF00041F010010160016841F0200101600168CC
:100D000041F004010160DAF8001021F47001CAF822
:100D10000010DAF8001041F44011CAF80010DAF8B7
:100D2000001041F48001CAF80010696821F0F00158
:100D30006960696841F030016960696841F04001AB
:100D40006960296821F470212960296841F44031E3
:100D50002960296841F480212960416841F400310B
:100D60004160016841F004010160296821F470616B
:100D70002960296841F420612960296821F47041C3
:100D80002960296841F48041296040F6A661A1608C
:100D9000E1681143E160016840F60402114301601B
:100DA00068684FF0006120F00F006860686840F0EC
:100DB00008006860472038614FF6FF707861386836
:100DC00020F003003860386840F001003860B868EF
:100DD00020F00200B860386820F00C0038603868F5
:100DE00020F0F0003860B86840F00100B86057F8B3
:100DF000180C40F0010047F8180C57F80C0C40F0A4
:100E0000020047F80C0C4EF20010CEF20000016018
:100E10004EF21B40CEF2000010210170FFF70CFFD4
:100E200040F2100BC2F2000B0FF2B80901AE00BF86
:100E30004FF40070DAF8088028610A20FFF714FFE9
:100E40004FF00070286157F80C0C40F0020047F892
:100E50000C0CB86820F00100B860B86840F00100E0
:100E6000B86057F8180C40F0010047F8180C08F467
:100E7000005040EA004080F40050CAF80C0040F6F0
:100E80004050C0F20300FFF7EFFE9BF801200F2A4D
:100E900002D90120102104E0042A05D800204FF4D3
:100EA000801129618BF802003046494600F01CF899
:100EB0009DF804000028BBD0314605E011F8012F51
:100EC0006060002A1046B3D022681206F6D4226869
:100ED00012065CBF22685FEA0262EFD42268120643
:100EE000F2D5EBE725640A000FB4084B10B504A94E
:100EF00002AA039800F01CF8044602A9002000F0A2
:100F0000C1F8204610BC5DF814FB000085100008F5
:100F100002E008C8121F08C1002AFAD170477047C2
:100F2000002001E001C1121F002AFBD17047000020
:100F30002DE9FF4F89B09B460446002506E0252891
:100F40000BD05A460B999047641C6D1C20780028E2
:100F5000F5D10DB02846BDE8F08F0027B846012234
:100F6000474900E0074314F8013F203B02FA03F031
:100F70000842F7D120782E2819D114F8010F47F034
:100F800004072A280ED06FF02F022078A0F130013C
:100F900009290CD808EB880102EB410100EB01089C
:100FA000641CF2E70A98641C50F8048B0A902078BD
:100FB0000028CED0642808D0692806D075281ED015
:100FC0005A460B9990476D1C58E00A994FF00A0950
:100FD00001C90A91002802DA40422D2102E03905B8
:100FE00004D52B218DF82010012103E0F90704D04E
:100FF0002021F7E78A4608AE0DE00021FAE70A99BA
:101000004FF00A0901C90A91F7E74946FFF728F9A5
:10101000303106F8011D0028F7D1ADEB060000F1D4
:101020002009780701D44FF00108C84502DDA8EB7C
:10103000090000E000208046002706E008A85A4684
:10104000C05D0B9990476D1C7F1C5745F6DB04E093
:1010500030205A460B9990476D1CB8F10001A8F159
:101060000108F5DC05E016F8010B5A460B9990478C
:101070006D1CB9F10001A9F10109F4DC641C65E7FC
:10108000092801000A68531C0B60107070470000AB
:101090000000000000000102030406070809010225
:1010A00002030405060708090A0B0C0D0E0F1010A9
:1010B000D01000080000002010000000100F0008F1
:1010C000E01000081000002018040000200F0008A5
:1010D00001000000100000000024F40000000000E7
:04000005080000ED02
:00000001FF
